:100000000C9434000C9451000C9423030C94510074
:100010000C9451000C9451000C9451000C9451001C
:100020000C9451000C9451000C9451000C94B501A7
:100030000C9451000C9451000C9451000C945100FC
:100040000C9451000C9451000C9451000C945100EC
:100050000C94EE000C9451000C9451000C9451003F
:100060000C9451000C94510011241FBECFEFD8E026
:10007000DEBFCDBF11E0A0E0B1E0E8E8FEE002C0E5
:1000800005900D92A031B107D9F715E0A0E1B1E0DC
:1000900001C01D92A833B107E1F70E94AD020C9494
:1000A00042070C940000289A29982A988FE794E830
:1000B000AEE181509040A040E1F700C000002898D8
:1000C000299A2A988FE794E8AEE181509040A040A9
:1000D000E1F700C00000289829982A9A8FE794E851
:1000E000AEE181509040A040E1F700C000002898A8
:1000F00029982A98089590911001E5E3F1E0E90F1D
:10010000F11D80839F5F9093100108950F931F93BB
:10011000CF938C01C0E007C0800F911FFC0180814C
:100120000E947B00CF5F8C2F90E0E02FF12FDF014A
:100130000D900020E9F71197AE1BBF0B8A179B07A4
:1001400058F38091C00085FF02C01092C600CF9185
:100150001F910F9108950F931F93CF93DF93CDB706
:10016000DEB7E2970FB6F894DEBF0FBECDBF0E9498
:10017000060300D000D000D0EDB7FEB731968E0157
:100180000F5F1F4FADB7BEB712961C930E9311971A
:1001900020E031E033832283958384830E946B04C3
:1001A0008DB79EB706960FB6F8949EBF0FBE8DBF53
:1001B00083E091E00E948600C8010E94860086E0EC
:1001C00091E00E948600E2960FB6F894DEBF0FBE63
:1001D000CDBFDF91CF911F910F9108951F920F9284
:1001E0000FB60F9211248F939F93EF93FF938091FB
:1001F000110190911001891761F0E5E3F1E0E80F3A
:10020000F11D80818093C600809111018F5F8093E2
:100210001101FF91EF919F918F910F900FBE0F9061
:100220001F9018950F931F93CF93DF938C01EB01D1
:10023000DA0180911201909113010097B1F0E9E188
:10024000F1E021E030E0422FB901808191810097F7
:1002500041F02F5F3F4F379626303105A1F7842FAD
:1002600001C0822F853021F417C060E070E040E0CB
:10027000CB01880F991F880F991F880F991F861B24
:10028000970BFC01EE5EFE4F11830083D383C28384
:10029000B583A4831682842FDF91CF911F910F9194
:1002A000089590E0FC01EE0FFF1FEE0FFF1FEE0F11
:1002B000FF1FE81BF90BEE5EFE4F118210821382C6
:1002C000128215821482168280E00895CF92DF9206
:1002D000EF92FF921F93CF93DF93C8E1D1E00F2EEF
:1002E000FAEFEF2EFFEFFF2EF02DEC0EFD1E10E0CB
:1002F0008881882391F0D701ED91FC911197309777
:1003000061F00995888181508883F7018481958106
:10031000009719F4812F0E9451011F5F279687E0F3
:1003200090E0E80EF91E153019F7DF91CF911F917B
:10033000FF90EF90DF90CF900895CF93C0E08C2F87
:100340000E945101CF5FC530D1F781E792E09093D1
:100350008900809388008CE08093810082E0809304
:100360006F00CF910895789408951F920F920FB661
:100370000F9211242F933F938F939F93AF93BF932B
:10038000CF93DF93EF93FF93E2E1F1E0DF01169665
:100390009F012D5D3F4F80819181009791F0828177
:1003A0009381009759F48C918F5F8C938481958110
:1003B000009739F001979383828303C00197938359
:1003C000828337961796E217F30729F7FF91EF918B
:1003D000DF91CF91BF91AF919F918F913F912F91DD
:1003E0000F900FBE0F901F901895209A219A229A75
:1003F00008951092C50087E68093C40088E4809336
:10040000C10086E08093C20078940895ECE7F0E0A4
:10041000808180648083EAE7F0E080818768808360
:100420000895ECE7F0E090818F70907F982B908397
:10043000EAE7F0E0808180648083808186FDFDCFE3
:10044000809178009091790008950F931F93CF9336
:10045000DF93CDB7DEB7E2970FB6F894DEBF0FBEDD
:10046000CDBF81E00E94110200D000D000D0EDB7D6
:10047000FEB731968E010F5F1F4FADB7BEB7129614
:100480001C930E93119720E031E0338322839583F0
:1004900084830E946B048DB79EB706960FB6F894BE
:1004A0009EBF0FBE8DBF89E091E00E948600C8010B
:1004B0000E94860086E091E00E948600E2960FB6D8
:1004C000F894DEBF0FBECDBFDF91CF911F910F918A
:1004D00008950F931F93CF93DF93CDB7DEB7E297C5
:1004E0000FB6F894DEBF0FBECDBF80E00E941102B0
:1004F00000D000D000D0EDB7FEB731968E010F5F6F
:100500001F4FADB7BEB712961C930E93119720E004
:1005100031E033832283958384830E946B048DB7FB
:100520009EB706960FB6F8949EBF0FBE8DBF8CE0A7
:1005300091E00E948600C8010E94860086E091E05A
:100540000E948600E2960FB6F894DEBF0FBECDBFC4
:10055000DF91CF911F910F9108950E949D010E94FC
:10056000F5010E94F9010E9406020E94E0020E9429
:10057000E8020E94EE0283E590E060E070E048EE61
:1005800053E00E94120189E692E068EC70E04EEEC2
:1005900052E00E94120185E292E064E670E044EFCE
:1005A00051E00E9412018BEA90E060E070E044E6C6
:1005B00050E00E9412010E94B3010E946601FDCF2B
:1005C00081E08AB91BB88AE08A95F1F700C00895E6
:1005D0001092800081E080938100089584E08093F0
:1005E000690082E08DBB089581E080933505589ABB
:1005F00080E48A95F1F758988FEF99EFA0E0815049
:100600009040A040E1F700C0000008950E94F4026D
:100610006091360570913705729562956F70672706
:100620007F706727882777FD8095982F0E94DF03CA
:100630002DEC3CEC48E652E40E9444030E94AC03DB
:10064000862F972F08951F920F920FB60F921124A5
:100650008F939F9380913505813039F410928500F6
:10066000109284001092350508C08091840090910A
:10067000850090933705809336059F918F910F9059
:100680000FBE0F901F9018950CD0EBC0E3D040F038
:10069000DAD030F021F45F3F19F0CCC0511115C110
:1006A000CFC0F0D098F39923C9F35523B1F3951B2C
:1006B000550BBB27AA2762177307840738F09F5F83
:1006C0005F4F220F331F441FAA1FA9F333D00E2EF2
:1006D0003AF0E0E830D091505040E695001CCAF75F
:1006E00029D0FE2F27D0660F771F881FBB1F261724
:1006F00037074807AB07B0E809F0BB0B802DBF01F7
:10070000FF2793585F4F2AF09E3F510568F092C033
:10071000DCC05F3FECF3983EDCF3869577956795F8
:10072000B795F7959F5FC9F7880F911D96958795A7
:1007300097F90895E1E0660F771F881FBB1F6217C6
:1007400073078407BA0720F0621B730B840BBA0B84
:10075000EE1F88F7E095089504D06894B111B5C0F4
:10076000089598D088F09F5790F0B92F9927B751E6
:10077000A0F0D1F0660F771F881F991F1AF0BA9565
:10078000C9F712C0B13081F09FD0B1E008959CC08C
:10079000672F782F8827B85F39F0B93FCCF386955B
:1007A00077956795B395D9F73EF4909580957095B8
:1007B00061957F4F8F4F9F4F0895E89409C097FB35
:1007C0003EF490958095709561957F4F8F4F9F4F28
:1007D0009923A9F0F92F96E9BB279395F69587956C
:1007E00077956795B795F111F8CFFAF4BB0F11F42F
:1007F00060FF1BC06F5F7F4F8F4F9F4F16C08823D6
:1008000011F096E911C0772321F09EE8872F762F0B
:1008100005C0662371F096E8862F70E060E02AF04C
:100820009A95660F771F881FDAF7880F9695879538
:1008300097F9089597F99F6780E870E060E0089560
:100840009FEF80EC089500240A94161617061806E8
:100850000906089500240A941216130614060506C4
:100860000895092E0394000C11F4882352F0BB0F55
:1008700040F4BF2B11F460FF04C06F5F7F4F8F4FB8
:100880009F4F089557FD9058440F551F59F05F3FF3
:1008900071F04795880F97FB991F61F09F3F79F0A2
:1008A00087950895121613061406551FF2CF469524
:1008B000F1DF08C0161617061806991FF1CF8695A6
:1008C0007105610508940895E894BB27662777278A
:1008D000CB0197F90895AEE0B0E0E1E7F4E00C94C5
:1008E00019070D891E8986E08C831A8309838FEF8F
:1008F0009FE79E838D83AE01475E5F4FCE010196D9
:100900006F89788D0E948D04EF81F885E00FF11FCB
:1009100010822E96E4E00C943507ADE0B0E0E3E9F8
:10092000F4E00C940B073C017D876C875A01FC01B5
:1009300017821682838181FFC8C12E010894411C51
:10094000511CF3019381EC85FD8593FD859193FF07
:100950008191FD87EC87882309F4B3C1853241F486
:1009600093FD859193FF8191FD87EC87853229F472
:1009700090E0B3010E948106E4CFFF24EE2410E052
:100980001032B0F48B3269F08C3228F4803251F09E
:10099000833271F40BC08D3239F0803349F4116029
:1009A0002CC01260146029C0186027C0106125C0D7
:1009B00017FD2EC0282F20532A3098F416FF08C0A8
:1009C0008F2D880FF82EFF0CFF0CF80EF20E15C0BD
:1009D0008E2D880FE82EEE0CEE0CE80EE20E106263
:1009E0000CC08E3221F416FD6CC1106406C08C362A
:1009F00011F4106802C0883659F4EC85FD8593FD2A
:100A0000859193FF8191FD87EC87882309F0B8CF0A
:100A1000982F9554933018F09052933038F424E086
:100A200030E0A20EB31E3FE339830FC0833631F0AE
:100A3000833781F0833509F05AC022C0F5018081E7
:100A4000898322E030E0A20EB31E21E0C22ED12C19
:100A5000420114C092E0292E312C2A0C3B1CF501D6
:100A60008080918016FF03C06F2D70E002C06FEF91
:100A70007FEFC4010E9476066C0151011F7715C0FB
:100A800082E0282E312C2A0C3B1CF50180809180BD
:100A900016FF03C06F2D70E002C06FEF7FEFC4013F
:100AA0000E946B066C011068510113FD1CC006C04A
:100AB00080E290E0B3010E948106EA948E2D90E0DE
:100AC000C816D906A8F30FC0F40117FD859117FFCA
:100AD00081914F0190E0B3010E948106E110EA94F8
:100AE0000894C108D108C114D10471F7E7C0843655
:100AF00011F0893651F5F50117FF07C0808191810A
:100B0000A281B38124E030E008C080819181AA27CE
:100B100097FDA095BA2F22E030E0A20EB31E012F60
:100B20000F76B7FF08C0B095A095909581959F4F1F
:100B3000AF4FBF4F0068BC01CD01A2012AE030E0F9
:100B40000E94AD06D82ED4183FC0853721F41F7EF1
:100B50002AE030E020C0197F8F36A9F0803720F4DA
:100B6000883509F0AEC00BC0803721F0883709F016
:100B7000A8C001C0106114FF09C0146007C014FFB1
:100B800008C0166006C028E030E005C020E130E073
:100B900002C020E132E0F50117FF07C060817181DA
:100BA0008281938144E050E006C06081718180E0E1
:100BB00090E042E050E0A40EB51EA2010E94AD06F6
:100BC000D82ED418012F0F7706FF09C00E7FDF142F
:100BD00030F404FF06C002FD04C00F7E02C01D2DCC
:100BE00001C01F2D802F90E004FF0CC0FE01ED0D11
:100BF000F11D2081203311F4097E09C002FF06C0D7
:100C00001E5F05C086789070009709F01F5F802EE8
:100C1000992403FD12C000FF0DC0FD2C1E1550F4D9
:100C2000FE0CF11A1E2D06C080E290E0B3010E9476
:100C300081061F5F1E15C0F304C01E1510F4E11AD3
:100C400001C0EE2484FE0FC080E390E0B3010E9457
:100C5000810682FE1FC081FE03C088E590E010C0BF
:100C600088E790E00DC0C40186789070009791F0FD
:100C700081FC02C080E201C08BE207FD8DE290E0C2
:100C8000B3010E94810606C080E390E0B3010E9498
:100C90008106FA94DF14C0F3DA94F201ED0DF11D30
:100CA000808190E0B3010E948106DD20A9F706C093
:100CB00080E290E0B3010E948106EA94EE20C1F741
:100CC00040CEF3018681978102C08FEF9FEF2D9672
:100CD000E2E10C942707FC0105906150704001107F
:100CE000D8F7809590958E0F9F1F0895FC01615055
:100CF000704001900110D8F7809590958E0F9F1F3E
:100D000008950F931F93CF93DF938C01EB018B8199
:100D100081FF1BC082FF0DC02E813F818C819D8190
:100D20002817390764F4E881F9810193F983E8838E
:100D300006C0E885F985802F0995009731F48E81EA
:100D40009F8101969F838E8302C00FEF1FEFC80122
:100D5000DF91CF911F910F910895FA01AA272830B2
:100D600051F1203181F1E8946F936E7F6E5F7F4F78
:100D70008F4F9F4FAF4FB1E03ED0B4E03CD0670FF4
:100D8000781F891F9A1FA11D680F791F8A1F911D47
:100D9000A11D6A0F711D811D911DA11D20D009F497
:100DA00068943F912AE0269F11243019305D3193D9
:100DB000DEF6CF010895462F4770405D4193B3E0C2
:100DC0000FD0C9F7F6CF462F4F70405D4A3318F069
:100DD000495D31FD4052419302D0A9F7EACFB4E01A
:100DE000A6959795879577956795BA95C9F70097D2
:100DF0006105710508959B01AC010A2E0694579573
:100E0000479537952795BA95C9F7620F731F841FC9
:100E1000951FA01D08952F923F924F925F926F925F
:100E20007F928F929F92AF92BF92CF92DF92EF927A
:100E3000FF920F931F93CF93DF93CDB7DEB7CA1BFB
:100E4000DB0B0FB6F894DEBF0FBECDBF09942A8826
:100E5000398848885F846E847D848C849B84AA84CE
:100E6000B984C884DF80EE80FD800C811B81AA815B
:100E7000B981CE0FD11D0FB6F894DEBF0FBECDBF26
:080E8000ED010895F894FFCF85
:100E88002569007C44007C0A007C4C007C430000FF
:00000001FF
